:020000040000FA
:040800008431412CD2
:1008060008007E1484312100901E102C2000901EBA
:10081600102C91311B2184313F2C0B1F3F2C2100C2
:10082600111D1C2C2000111D1C2C90312F208431F1
:100836003F2C2100911D262C2000911D262C86314F
:100846009E2684313F2C2100111E332C2000111EC0
:10085600332C23006A088A0069080A0084313F2C79
:100866002100911E3F2C2000911E3F2C230068087A
:100876008A0067080A0084317E1009008431432CFF
:10088600D3308400903085006030860002308700C7
:100896000B3090314B208431F001F101F201F3016C
:1008A600F401F501F601CB308400003085002530D7
:1008B60090314520843162308400013085000E304D
:1008C600903145208431A0308400013085003F30CE
:1008D600903145208431203084000230850040303C
:1008E600903145208431A03084000230850050309C
:1008F600903145208431203084000330850040301B
:10090600903145208431A03084000330850040308A
:1009160090314520843120308400043085004030F9
:10092600903145208431A030840004308500403069
:10093600903145207E1020009131D4292000BA0143
:10094600BB01BC01E330B5003508BA003B30A0005E
:100956000030A1000030A200A3000230A400003045
:10096600A50097314427843140302000A80000308C
:10097600A9003A30B5003508AA000130AB000030B6
:10098600AC003B30AD000030AE000230AF000030AE
:10099600B00095312925843120003C08B500B60108
:1009A6003B08B700B8013708B800B7013508370764
:1009B6002100D00020003608383D2100D100D201A8
:1009C600D11BD2035208D3005308520451045004D9
:1009D6000319080053082000A30021005208200034
:1009E600A200210051082000A1002100500820008B
:1009F600A0000030A7000030A6004430A500A430B7
:100A0600A40093316023843120002008B50021081A
:100A1600B6002208B7002308B8001030B900B8376E
:100A2600B70CB60CB50CB90B122DB3303507210037
:100A3600D000ED302000363D2100D100FF302000EF
:100A4600373D2100D200FF302000383D2100D30081
:100A560000302000A3000030A2000030A100643066
:100A6600A000210053082000A70021005208200002
:100A7600A600210051082000A500210050082000F2
:100A8600A40096311626843120002008B5003508CA
:100A9600F1007108B5003508F0007108803A4E3E45
:100AA6000318D02D21006808803A2000B50071088F
:100AB600803AB502031C622D21006308CA2D21006D
:100AC6006808803A2000B5007108803AB50203181C
:100AD600792D21006708803A2000B5007108803A18
:100AE600B502031C792D21006208CA2D2100670872
:100AF600803A2000B5007108803AB5020318902D9F
:100B060021006608803A2000B5007108803AB502D7
:100B1600031C902D21006108CA2D21006608803A29
:100B26002000B5007108803AB5020318A72D2100F0
:100B36006508803A2000B5007108803AB502031CAA
:100B4600A72D21006008CA2D21006508803A2000E3
:100B5600B5007108803AB5020318BE2D210064085D
:100B6600803A2000B5007108803AB502031CBE2DFC
:100B760021005F08CA2D21006408803A2000B500D4
:100B86007108803AB5020318D22D21005E082000B4
:100B9600B50035082100DD00D22D2100DD016430CD
:100BA6002000A6000030A70021005D082000B50047
:100BB600B6013508A0003608A1003F30A20001307A
:100BC600A3009131EF21843120002108A9002008DB
:100BD600A8009531C425843120002708B0002608D6
:100BE600AF009131702184317008803A4E3E03186F
:100BF600772E21006808803A2000B5007008803AF8
:100C0600B502031C092E21006308712E2100680815
:100C1600803A2000B5007008803AB5020318202EED
:100C260021006708803A2000B5007008803AB502B6
:100C3600031C202E21006208712E21006708803ACD
:100C46002000B5007008803AB5020318372E21003F
:100C56006608803A2000B5007008803AB502031C89
:100C6600372E21006108712E21006608803A200087
:100C7600B5007008803AB50203184E2E21006508AB
:100C8600803A2000B5007008803AB502031C4E2E4B
:100C960021006008712E21006508803A2000B50009
:100CA6007008803AB5020318652E21006408803A60
:100CB6002000B5007008803AB502031C652E21009D
:100CC6005F08712E21006408803A2000B500700884
:100CD600803AB5020318792E21005E082000B5007F
:100CE60035082100DC00792E2100DC01643020006B
:100CF600A6000030A70021005C082000B500B60160
:100D06003508A0003608A1003F30A2000130A3003C
:100D16009131EF21843120002108A9002008A80084
:100D26009531C425843120002708B0002608AF007D
:100D3600913189210800200091112400951FD22F9E
:100D460095132100ED016B08033E860001308700F4
:100D5600403FFA00413FFB007A0886007B08870087
:100D660001308100EB010800CD1808004C08FA009C
:100D76007A08EB004C088600013087000108FA006B
:100D86007A08EC004C0A860001308700403FD80004
:100D9600413FD9000530FA007A08CC074C08DF3A03
:100DA600031DD92EDA30FA007A08CC004D104C0813
:100DB6004B060319CD14240016140230FA007A08E3
:100DC6002100ED000800782F2400161FF32E0130B5
:100DD600FA007A082100CF07043092312822080051
:100DE6007608FB007508FA00FB36FA0C7A089100C3
:100DF600751C032F0B30FA007A082100ED0008005D
:100E06000330FA007A082100ED0008002400161FBE
:100E1600152F0130FA007A082100CF0704309231ED
:100E26002822080096147608FB007508FA007B084D
:100E3600FA00FB0106307A05FC0000307B05FD0058
:100E4600F0307C04F50000307D04F60075142100B6
:100E5600E901E90AE02E690303194D2F58088600B7
:100E660059088700403FF500413FF60058088600C4
:100E7600590887004331403F2300C400413FC50065
:100E86002100580886005908870042310108FA00F7
:100E96007A08EA00750824009100751C032F0530B6
:100EA600FA007A082100ED0008002400161F662FBC
:100EB6000130FA007A082100CF0724001613053006
:100EC60092312822080001302100EA026A0A031D35
:100ED6007B2F0530D8070030D93D0130EC02031DC9
:100EE600782F003092312822080024009614E02E34
:100EF6002300440886004508870001082400910065
:100F060001302300C4070030C53D08002400161F29
:100F1600972F0130FA007A082100CF07043092316A
:100F2600282224001613080096150830FA007A08BD
:100F36002100ED0008000830FA007A08ED002400D0
:100F460096150800230044088600450887002400FB
:100F56001108810001302300C4070030C53D01306F
:100F66002100EA020319BF2F240096120630FA0068
:100F76007A082100ED00C32F2400961691310A212C
:100F8600240016160800003092312822080001308D
:100F9600FA007A08CF07063092312822080021008D
:100FA6006D08FA00FB017B08003A0319DB2FCA2FF4
:100FB6007A08003A0319B72E013A0319E62E033AC6
:100FC60003192E2F013A0319582F073A0319C62F72
:100FD600013A0319892F033A03199E2F013A03197F
:100FE600C62F0F3A0319A52F023A0319E72E013A25
:100FF6000319092FCA2F080008002000B200B0010B
:10100600B10130083207AC002C0886000230870098
:101016000108AD002D08AF002F08031908002F089E
:10102600AC00AD012C08A3002D08A4002B08AE00CF
:101036002E08A5009331F923883101302000B0072E
:101046000030B13D04282000A40021004D18682876
:1010560002302000A30022088600870123088100B1
:1010660021004B0A86000130870020002008C03F7F
:101076002108C13F2408A30021004B088600013047
:10108600870020002308810021004B08033E8600CC
:101096000130870020002208C03F0030C13F0530E4
:1010A600A30023082100CB074B08DF3A031D612864
:1010B600DA302000A30023082100CB00CD104C0815
:1010C6004B06031D6E284D146E282000220886004C
:1010D60087018101810A20002208860087010230EB
:1010E6000106031D080090313A20200091150800E2
:1010F600263086000030870020302000A400003013
:101106001E00A40B83289231A52288318B170B175A
:101116002000C601C7014608003EA000F030473D4A
:10112600A1009031EC2088312000A4004608263E1C
:1011360086008701240881000130C6070030C73DBC
:10114600003047020F3003194602031C8E28260A78
:10115600031D05290030A000F030A100AA30A4002C
:101166002408A2009231C62288312000C601C70198
:101176004608043EA000F030473DA1004608603E08
:101186008600023087000108A4002408A2009231DC
:10119600C622883101302000C6070030C73D003026
:1011A60047020B3003194602031CBB2809302000F6
:1011B600A5001E30A400E430890BDF28A40BDF282D
:1011C600A50BDF2800002000C601C7014608003E27
:1011D600A000F030473DA1009031EC20883120007E
:1011E600A4004608263E86008701240881000130B7
:1011F600C6070030C73D003047020F3003194602CC
:10120600031CE9282A08A40024082100E80020007D
:101216002B08A40024082100E70020002C08A400C5
:1012260024082100E60020002D08A400240821003F
:10123600E50020002E08A40024082100E400200078
:101246002F08A40024082100E30020003008A40091
:1012560024082100E20020003108A400240821000F
:10126600E10020003208A40024082100E00020004C
:101276003308A40024082100DF0020003408A4005D
:1012860024082100DE0008002000E9005A08860034
:101296008701403FDC00413FDD005C0884005D08BB
:1012A60085001200253A031DF5295A088600870194
:1012B6000130810741310318810A2300BE01BF01B5
:1012C6002100D601D701FF30D400FF30D500200021
:1012D6005A0886008701403FDC00413FDD005C087C
:1012E60084005D0885001200643A031989295A08AA
:1012F60086008701403FDC00413FDD005C0884003A
:101306005D0885001200693A031DC3295A08860044
:1013160087010130810741310318810A5B08860085
:10132600870101088400850102308107003FDC0047
:10133600013FDD005C08E1005D08E200890D893BA4
:101346008909E300E400E500E600E700E80061083B
:10135600BC006208BD006308BE006408BF006508E3
:10136600C0006608C1006708C2006808C3006908B3
:101376008B31EE2320003D08DB003C08DA00080034
:101386005A0886008701403FDC00413FDD005C08CB
:1013960084005D0885001200253A031DEA295A08D3
:1013A600860087010130810741310318810A253003
:1013B600A3000030A4006908DC005C08A500933196
:1013C600F92301302000DA000030DB0008005A085B
:1013D600860087010130810741310318810ADA014D
:1013E600DB0108005A0886008701403FDC00413FC8
:1013F600DD005C0884005D0885000008DE00DF0172
:101406005E08A3005F08A4006908E0006008A50064
:101416009331F923893120005A088600870101306B
:10142600810741310318810AE4292000B2012830DE
:10143600860000308700473FB000B01F442A2000D6
:10144600A809A909AA09AB09AC09AD09AE09AF09F2
:10145600A80A031D412AA90A031D412AAA0A031D37
:10146600412AAB0A031D412AAC0A031D412AAD0AD3
:10147600031D412AAE0A031D412AAF0A2000B2010C
:10148600B20A2030860000308700473F2000B000B7
:10149600B01F6C2A2000A009A109A209A309A4096A
:1014A600A509A609A709A00A031D6C2AA10A031DFE
:1014B6006C2AA20A031D6C2AA30A031D6C2AA40A1D
:1014C600031D6C2AA50A031D6C2AA60A031D6C2A95
:1014D600A70A20002008210422042304240425044A
:1014E600260427040319C42AB101B10AA71B882AB6
:1014F600A035A10DA20DA30DA40DA50DA60DA70D3A
:101506000130B0003008B107792A27082F02031DE1
:10151600A62A26082E02031DA62A25082D02031D2B
:10152600A62A24082C02031DA62A23082B02031D23
:10153600A62A22082A02031DA62A21082902031D1B
:10154600A62A20082802031CB82A2008A802210877
:10155600A93B2208AA3B2308AB3B2408AC3B250841
:10156600AD3B2608AE3B2708AF3BA736A60CA50C1D
:10157600A40CA30CA20CA10CA00C0130B102031DFB
:10158600882A32080319E52AA809A909AA09AB0974
:10159600AC09AD09AE09AF09A80A031DE52AA90AD7
:1015A600031DE52AAA0A031DE52AAB0A031DE52A3F
:1015B600AC0A031DE52AAD0A031DE52AAE0A031D82
:1015C600E52AAF0A20002808A0002908A1002A0859
:1015D600A2002B08A3002C08A4002D08A5002E08A5
:1015E600A6002F08A70008002000B20120308600C0
:1015F60000308700473FB000B01F232B2000A00912
:10160600A109A209A309A409A509A609A709A00A6F
:10161600031D202BA10A031D202BA20A031D202B2C
:10162600A30A031D202BA40A031D202BA50A031DB4
:10163600202BA60A031D202BA70A2000B201B20AFE
:101646002830860000308700473F2000B000B01FDA
:10165600502B2000A809A909AA09AB09AC09AD09B4
:10166600AE09AF09A80A031D4B2BA90A031D4B2B74
:10167600AA0A031D4B2BAB0A031D4B2BAC0A031DF9
:101686004B2BAD0A031D4B2BAE0A031D4B2BAF0A8A
:1016960001302000B0003008B2063330860000303A
:1016A600870008302000B00000301E00B00B582B19
:1016B60020082104220423042404250426042704E4
:1016C6000319BB2BB101B10AA71B762BA035A10DBF
:1016D600A20DA30DA40DA50DA60DA70D0130B000FA
:1016E6003008B107672BB335B40DB50DB60DB70D80
:1016F600B80DB90DBA0D27082F02031D9C2B26081D
:101706002E02031D9C2B25082D02031D9C2B24084D
:101716002C02031D9C2B23082B02031D9C2B220845
:101726002A02031D9C2B21082902031D9C2B20083D
:101736002802031CAF2B2008A8022108A93B220877
:10174600AA3B2308AB3B2408AC3B2508AD3B260847
:10175600AE3B2708AF3B3314A736A60CA50CA40C4A
:10176600A30CA20CA10CA00C0130B102031D762B18
:1017760032080319DC2BB309B409B509B609B70950
:10178600B809B909BA09B30A031DDC2BB40A031D4B
:10179600DC2BB50A031DDC2BB60A031DDC2BB70AAE
:1017A600031DDC2BB80A031DDC2BB90A031DDC2B39
:1017B600BA0A20003308A0003408A1003508A200A8
:1017C6003608A3003708A4003808A5003908A60083
:1017D6003A08A70008002000C9003C08D0003D08D0
:1017E600D1003E08D2003F08D3004008D40041088B
:1017F600D5004208D6004308D70050308600003096
:101806008700473FC400C41F0A2C01300B2C003050
:101816002000C500C6014508CE004608CF004E0888
:101826004F040319342CD009D109D209D309D4099C
:10183600D509D609D709D00A031D342CD10A031DB0
:10184600342CD20A031D342CD30A031D342CD40A9B
:10185600031D342CD50A031D342CD60A031D342C43
:10186600D70A2100D51B3B2CFD30D605FF30D70506
:101876005508803A2000C40080304402031D462CDF
:1018860001302100540203184E2C01302000CA00FA
:101896000030CB00562C210055082000CB0021003B
:1018A60054082000CA0023003F082000CD00230072
:1018B6003E082000CC004E084F04031D652C210075
:1018C600561D6A2CFF302000CC07FF30CD3D1F305F
:1018D6002000D8000030D9002500EF01002D20009F
:1018E6005008510452045304540455045604570432
:1018F600031D972C4B08803AC40080304402031D18
:10190600862C01304A020318972C20004D08803A95
:10191600C40080304402031D922C01304C02031C8B
:101926000C2D2100D61C0C2DFF302000D807FF30CF
:10193600D93D0A30A000A101A201A301A401A5017D
:10194600A601A7015008A8005108A9005208AA003C
:101956005308AB005408AC005508AD005608AE005D
:101966005708AF008A3118228B3120002108B400B5
:101976002008B3009131A2218B3120003308303E7C
:10198600C4005808D03E8600023087004408810013
:10199600FF30CA07FF30CB3DFF30CC07FF30CD3DCF
:1019A6000A30A000A101A201A301A401A501A6017C
:1019B600A7015008A8005108A9005208AA00530818
:1019C600AB005408AC005508AD005608AE005708E9
:1019D600AF008A31F7228B3120002008D000210881
:1019E600D1002208D2002308D3002408D4002508F9
:1019F600D5002608D6002708D70020005908803AC7
:101A0600C40080304402031D0A2D01305802031819
:101A1600722C20004E084F04031D142D2100561D64
:101A26002C2DFF302000D807FF30D93D4E084F043B
:101A3600031D1F2D2B30202D2D30C7000030C80070
:101A46004708C4005808D03E860002308700440884
:101A5600810020005808D03EC4004408B3004D0859
:101A6600B5004C08B40049089531742520003408A7
:101A7600BD003308BC0008002100B4000030B800E7
:101A86000030B7000030B6000030B5000430AD00BD
:101A96002D08B5000230AD002D08B6003408AD00A3
:101AA6002D08B700722E2C08AD002D08DD0064301D
:101AB6002000A6000030A70021005D08AD00AE01A1
:101AC6002D082000A00021002E082000A1003F3094
:101AD600A2000130A3009131EF218D3120002108B1
:101AE600A9002008A8009531C4258D3120002708BB
:101AF600B0002608AF00913170218D3104302100ED
:101B0600AD002D08B5000330AD002D08B600340831
:101B1600AD002D08B7005D080C2E2C08AD002D0871
:101B2600DC0064302000A6000030A70021005C081D
:101B3600AD00AE012D082000A00021002E082000D7
:101B4600A1003F30A2000130A3009131EF218D3179
:101B560020002108A9002008A8009531C4258D3150
:101B660020002708B0002608AF00913189218D3169
:101B760004302100AD002D08B5000330AD002D085E
:101B8600B6003408AD002D08B7005C080C2E2C08F2
:101B9600AD002D08DA000030A3009830A4005A08E2
:101BA600AD00AE012D08A5002E08A6002C08AF003A
:101BB600B0012F08A7003008A800913143218D31CC
:101BC60040302100AD002D08B1005A08AD002D08A7
:101BD600B2005C302000A8000030A900B13021001E
:101BE600AD002D082000AA000230AB000030AC008A
:101BF600943130248D3104302100AD002D08B5001C
:101C06000330AD002D08B6003408AD002D08B7002E
:101C16005A08AD002D08B8008B2E0430AD002D08F3
:101C2600B5000230AD002D08B6003408AD002D0811
:101C3600B7003608013EAD002D082000A200B530E1
:101C4600923185228D319031FB208D319031DE200D
:101C56008D3129302100AE009630AD007F30890BE2
:101C6600322EAD0B322EAE0B322E2200EE01EE0AD4
:101C76008B2E00302000A000F030A100AA302100F9
:101C8600AD002D082000A2009231C6228D31210020
:101C9600B3013308043E2000A000F0300318F130F1
:101CA600A10021003308233E860002308700010888
:101CB600AD002D082000A2009231C6228D310130E0
:101CC6002100AD002D08B3070B3033020318382E60
:101CD6004C2EFF30AD002D08B500B6018B2E340812
:101CE600AD00AE012E08003A03197A2E6C2E2D088F
:101CF600033A0319562D073A0319902D0E3A031984
:101D0600CA2D013A0319102E063A03193C2E6C2EE1
:101D160021003608013EAD002D082000A200B53096
:101D26009231852208002100B200B53086000030CD
:101D360087001030AC0000301E00AC0B9F2EFF3029
:101D4600AC002C08B500B601BE2F0230AC002C0842
:101D5600B5000430AC002C08B6002400220821008F
:101D6600AC002C08B7005008AC005108AD00520872
:101D7600AE005308AF000830B000AF37AE0CAD0C64
:101D8600AC0CB00BC02E2C08B1003108B8005008BE
:101D96006D2F0230AC002C08B5000330AC002C08C7
:101DA600B600240022082100AC002C08B7005D080C
:101DB600AC002C08B8000230AC002C08B50003308B
:101DC600AC002C08B600240022082100AC002C0828
:101DD600B7005C08AC002C08B800F52F1230923121
:101DE60046228E31200021082100C600200020084E
:101DF6002100C5000230AC002C08B5000430AC0050
:101E06002C08B600240022082100AC002C08B700DC
:101E16004608AC002C08B80045086D2F1330F22E8A
:101E26001530F22E4030AC002C08B3005C30200098
:101E3600A8000030A900B3302100AC002C08200017
:101E4600AA000130AB000030AC0021005A08AD00FA
:101E5600AE012D082000AD0021002E082000AE00A6
:101E66000130AF000030B000953129258E310230A7
:101E76002100AC002C08B5000330AC002C08B600DD
:101E8600240022082100AC002C08B7005A08AC0038
:101E96002C08B8002230A3009830A4005A08AC00E1
:101EA600AD012C08A5002D08A600913143218E31E5
:101EB600F52F0230AC002C08B5000430AC002C081D
:101EC600B600240022082100AC002C08B700B80197
:101ED600B80A0330AC002C08B900F52F0230AC006C
:101EE6002C08B5000D30AC002C08B60024002208E2
:101EF6002100AC002C08B700B4013408043E2000D1
:101F0600A000F0300318F130A1009031EC208E31A2
:101F16002100AC003408033EB53E860087012C083C
:101F260081000130AC002C08B4070B3034020318D2
:101F3600F52F802F0230AC002C08B5000530AC0020
:101F46002C08B600240022082100AC002C08B7009B
:101F5600003020000C1901302100B80000302000AC
:101F66000E1801302100B900003020008E18013013
:101F76002100BA00F52F3208AC00AD012D08003A59
:101F86000319C62FF52F2C08013A0319A82E033A78
:101F96000319A82E013A0319CC2E073A0319DE2E8F
:101FA600013A0319F12E033A0319112F013A0319C5
:101FB600132F0F3A0319A82E013A0319A82E033A34
:101FC6000319152F063A03195C2F013A0319712FCD
:101FD600033A03199D2F013A0319A82E1F3A031934
:101FE600A82EF52F21003608013EAC002C08200053
:0A1FF600A200B530923185220800E8
:1020580091315821080020001111080023001D1299
:102068001D160800163021009700080021006D0891
:10207800031908003A282000A200220893310D23F2
:102088000800640080010131890B46280034FE00F5
:1020980012001E00FE0B4C28003432009101920100
:1020A800930194019501960108004F3020009E008D
:1020B8009D01911004309F000800013021009D000F
:1020C800E0309E009F019B019C0108002000210830
:1020D8002300E200200020082300E100080020007F
:1020E80021082300E600200020082300E50008005E
:1020F800200021082300E400200020082300E3003A
:102108000800200021082300E80020002008230000
:10211800E7000800200021082300EA00200020082A
:102128002300E90008006030320099009B019D01FE
:1021380007309F009E010800200021082300E000CE
:10214800200020082300DF00080080302C009900C0
:10215800980197011F08FC3901389F00080080305A
:102168002C009C009B019A011F08F33904389F003A
:10217800080023005F0860040319080060088A004B
:102188005F080A0090310800FF302000A7002708E8
:10219800A800A201A20A2830923185220800D8346A
:1021A800E234EC34F6340034643450343C342834AB
:1021B80014340034310091010430920093019401E9
:1021C8001430950055309600AA30960095140800F2
:1021D80020002108310092002000200831009100E1
:1021E8001517151400000000310013080800FE3010
:1021F800310091001F309200930194011430950032
:1022080055309600AA309600951408000530210034
:10221800D8070030D93D0130EC02031D18290430DD
:10222800F7007708ED000800ED01ED0A080020002E
:10223800901201302300C2070030C33D0030430232
:10224800193003194202031C08009031BD202300F5
:10225800C201C3010800463020009800F9309600FA
:102268009501901221009016FF302000A000073041
:10227800A1009031A0208930200097000800A530E7
:102288002000EF006F082100AB0024082000EB00BD
:10229800210023082000EA00AB30EF006F08EC00B3
:1022A80000309331C423080023001908F70073088D
:1022B800A03E860003308700770881000130F700D0
:1022C8007708F307403073020318F3010130F70071
:1022D80077082200EF07080020003008B2002F0816
:1022E800B100B236B10CB236B10C31082C009800EE
:1022F80020002F080339B1000530B135FF3E031D1A
:10230800812931352C009700080020003008B200E0
:102318002F08B100B236B10CB236B10C31082C001E
:102328009B0020002F080339B1000530B135FF3E6E
:10233800031D9A2931352C009A0008002000340822
:10234800803AB50080303502031DAC2901303302D4
:102358000318080020003309B5003409B600B50A8F
:102368000319B60A3508B3003608B400080020007F
:10237800A4002408A2002208A30024088600023032
:10238800870001080319CD290130A2002208A407FB
:10239800C12923082402A000A101A01BA103080051
:1023A80088317B20913129302100CA009630C9003C
:1023B8007F30890BDD29C90BDD29CA0BDD29843162
:1023C800A124913196319826913122006E08031983
:1023D800D7290100D7292000A401A501201CF8292C
:1023E8002208A4072308A53D0130A235A30D890BB7
:1023F800F9290130A136A00C890BFE2920082104F7
:10240800031DF2292508A1002408A0000800DA30DD
:102418002000A00020082100CC00DA302000A00015
:1024280020082100CB00CD144D10CF0124009401C9
:102438002830950097013030920020009111111139
:102448002100911511150800F90024001615210026
:102458006B08033E8600013087001600010403194B
:10246800442A6B08033E860001308700403FF7008E
:10247800413FF800770886007808870079088100CE
:10248800ED0108002000A3002308A200A20DA20D60
:1024980021001D08200022060339220621009D0084
:1024A8001D140D30890B562A000021009D149D181B
:1024B8005B2A1C082000A10021001B082000A000A6
:1024C8000800403023006B020318822A21006F089D
:1024D800203E860004308700010823009A0001305E
:1024E800F70077082100EF0740306F020318EF016B
:1024F8000130F70077082300EB07080021001112CC
:1025080008002000A400A501A6012608803AA3001F
:1025180080302302031D922A22082502031808008E
:10252800200025082407A300230886008701010846
:1025380093310D23923101302000A5070030A63DCC
:10254800892A90315120923194316A249231903104
:102558009720923190313620923192310B2292316C
:102568009031B320923190316120923190315920CD
:1025780092319031A920923191312F2192319431A9
:10258800E224080000308B1B01302000A300210842
:10259800310092002000200831009100200022081C
:1025A80031009300151715158B1355309600AA3076
:1025B800960095149518DE2A15112000230C031C8B
:1025C8008B1303188B17080020002508A700240880
:1025D800A600A635A70D2008860021088700260832
:1025E800C03F2708C13F2008023EA6000030213D19
:1025F800A7002608860027088700230881002008EE
:1026080086002108870043312208C03F0030C13FBF
:1026180008002000A10023006B0803190F2B2100DC
:10262800111A1B2B2000210823009A00312B1112AC
:1026380020002108A0007408203E8600043087008E
:10264800200881000130A0002008F40740307402FF
:102658000318F40101302300EB02210011160800D1
:102668002000A7002408A6002308A500A535A60D6C
:1026780027088600013087002508C03F2608C13F8B
:10268800270886000130870001308104413100307D
:1026980081042208A5002708023E86000130870031
:1026A800250881002708033E86000130870020089E
:1026B800C03F2108C13F080000302000AB000030B7
:1026C800AA000030A9000030A800201C732B2408A1
:1026D800A8072508A93D2608AA3D2708AB3D0130D3
:1026E800A435A50DA60DA70D890B742B0130A336B3
:1026F800A20CA10CA00C890B7B2B2308220421041B
:102708002004031D692B2B08A3002A08A20029080E
:10271800A1002808A00008007308203E86000330A6
:102728008700810123001D1DA42B7308203E86000D
:1027380003308700811466088A0065080A0093310F
:1027480023009D1CB22B7308203E860003308700AF
:10275800011564088A0063080A0093317308203E53
:1027680086000330870001080319C12B2300620883
:102778008A0061080A009331080091315821080045
:102788002100A00020006B082100A20020006A0898
:102798002100A1002300BC01BD0121002108840003
:1027A8002208850012000319F02BA1302000ED004B
:1027B8006D08DA006C08EE006E08DB0021002008C6
:1027C80089314721933120005A082300BC07200093
:1027D8005B082300BD3DD12B23003D082000EB0002
:1027E80023003C082000EA00080020002508031DFB
:1027F8002508031D032C230890313F2008002508D5
:10280800033E86008701160001040319262C2508BB
:10281800033E86008701403FA600413FA700250AE6
:1028280086008701403FA800413FA9002908803A57
:10283800AA002708803A2A02031D242C2608280209
:10284800031808002000250A860087010130810747
:1028580041310318810A08002000AF010230AD00A1
:102868002D08B5003030A0000030A1002A08AD00C6
:102878002D08A2002B08AE002E08A3002908A500E9
:102888002808A4009231E822943120003503031966
:1028980008003030A0000030A1003530AD002D0810
:1028A800A2000130883126209431023020003506FC
:1028B8000319592C35080319080003302F0603198A
:1028C80008000130AD002D08AF07492C22008C010B
:1028D8008D018E01373021008C0040308D002F3063
:1028E8008E003C3023008E008D018C0124008D0168
:1028F80030308C008E0125008C018D018E0137301F
:1029080026008C00F0308D00FF308E003F3027000D
:102918008C00F0308D00FF308E000E303C00A4009B
:102928000430A00018303D00940014309F00193086
:1029380095000230A6000330A70005303C00A10036
:1029480008002000A100A201A20122006F080319BB
:10295800DF2C7208203E8600033087000108200023
:10296800A00020082100EE007208A03E8600033077
:10297800870001082000A000210886000130870098
:10298800200881000130A0002008F2070130A000D3
:102998002008A107403072020318F20121009112A9
:1029A80001302200EF022100911601302000A00022
:1029B8002008A207A92C2000220808002100911253
:1029C80090302000A0001330A10090318520943170
:1029D8002100111265302000A0001230A1009031B2
:1029E8008E209431083023009F0090309D002430C1
:1029F8009E0040309B0003309C0003302000A00064
:102A08000430A10090317320943132302000A000AE
:102A18001030A10090317C2094312C302000A0008F
:102A28001030A10090316A202100EE01F401EF017D
:102A380040302000A20022082300EB00F301F2013D
:102A48002200EF012100911608002000B301023096
:102A5800B1003108B400C630A0000130A1002A0836
:102A6800B1003108A2002B08B2003208A3002908DF
:102A7800A5002808A4009231E822953120002E08EC
:102A8800A1002D08A0002F08B1003108A2002908D4
:102A9800A4002808A300CB309331342395312000BB
:102AA800340303190800C630A0000130A1003430F7
:102AB800B1003108A2000230883126209531023059
:102AC800200034060319632D340803190800033065
:102AD8003306031908000130B1003108B307532D3C
:102AE8002000BB002100561C822D20003B08B600A8
:102AF8003608AB0033088831002095312000B51B1B
:102B08008A2D3508BA003408B9008C2DB901BA01EC
:102B1800B701B8013808803AB6003A08803A360258
:102B2800031D982D390837020318AC2D20302000DA
:102B3800A3000030A4003B08B6003608A500933176
:102B4800F923953101302000B7070030B83D8E2DAC
:102B580021005618B82D20003B08B6003608AB00F7
:102B68003308883100209531200033089131BB218A
:102B7800200039082007B3003A08213DB4000800B6
:102B88002000AC01A71FCF2DA609A709A60A031983
:102B9800A70AAC01AC0AA91FDA2DA809A909A80A35
:102BA8000319A90A0130AA002A08AC06AD01AE0132
:102BB800260827040319092EAB01AB0AA71BEE2D23
:102BC8000130A635A70D890BE52D0130AA002A088A
:102BD800AB07E22D0130AD35AE0D890BEF2D27087F
:102BE8002902031DF92D26082802031C002E260899
:102BF800A8022708A93B2D140130A736A60C890B7B
:102C0800012E0130AB02031DEE2D2C080319112EE5
:102C1800AD09AE09AD0A0319AE0A2E08A7002D08A2
:102C2800A60008002000AA01A31F272EA009A109B9
:102C3800A209A309A00A0319A10A0319A20A0319E0
:102C4800A30AAA01AA0AA71F382EA409A509A6093A
:102C5800A709A40A0319A50A0319A60A0319A70AAA
:102C68000130A8002808AA060030AE000030AD00E8
:102C78000030AC000030AB002308220421042004FB
:102C88000319812EA901A90AA31B562E0130A035CC
:102C9800A10DA20DA30D890B4B2E0130A800280809
:102CA800A907482E0130AB35AC0DAD0DAE0D890B23
:102CB800572E23082702031D6B2E22082602031D08
:102CC8006B2E21082502031D6B2E20082402031CED
:102CD800762E2008A4022108A53B2208A63B23083B
:102CE800A73B2B140130A336A20CA10CA00C890B16
:102CF800772E0130A902031D562E2A0803198F2E9C
:102D0800AB09AC09AD09AE09AB0A0319AC0A031942
:102D1800AD0A0319AE0A2E08A3002D08A2002C083C
:102D2800A1002B08A0000800203086000130870091
:102D380040302100C70000301E00C70BA02E220023
:102D48006F080319080041306F020318080020308B
:102D58002000A0000130A1000030A200A3004030F4
:102D6800A4000030A50097314427963120309431D3
:102D7800A52496312100C70047082200E00020085A
:102D88002100C70047082400A000220021082100D4
:102D9800C70047082400A100220022082100C7001C
:102DA80047082400A200220020082100C700470885
:102DB8002400A000220021082100C70047082400A1
:102DC800A100220022082100C70047082400A20011
:102DD80002302102031C08002200E101240021081E
:102DE800FE3E2100C700FF3003180030C800480825
:102DF800803A803C031D032F470822006102031814
:102E08001E2F22006108033E203E86000130870005
:102E180001082100C70022006108233E8600023015
:102E280087002100470881000130C70047082200B9
:102E3800E107F22E24002003031D2C2F033022006B
:102E48006006031D2C2F240022088E3196260800C8
:102E5800033024002006031D412F0F30220060029A
:102E68000318412F240023082100C7004708AC009D
:102E7800240022088D313F2508009031C820080021
:102E880020002108AD002008AC00240825040319FF
:102E980008002C0886002D088700220881002408D5
:102EA8002C07A60025082D3DA7002608FF3EA800F0
:102EB800FF30273DA9002808860029088700220836
:102EC800810000302502033003192402031C080086
:102ED8002C08013EA60000302D3DA70026088600DC
:102EE80027088700220881002C08023EA60000302F
:102EF8002D3DA700260886002708870022088100A4
:102F080024082C07A60025082D3DA7002608FE3E0C
:102F1800A800FF30273DA900280886002908870057
:102F28002208810024082C07A60025082D3DA700AB
:102F38002608FD3EA800FF30273DA9002808860086
:102F4800290887002208810000302502073003196C
:102F58002402031C08002C08033EA60000302D3D67
:102F6800A700260886002708870022088100240871
:102F78002C07A60025082D3DA7002608FC3EA80022
:102F8800FF30273DA9002808860029088700220865
:102F9800810000302502093003192402031C0800AF
:102FA8002C09A6002D09A700A60A0319A70A0330B1
:102FB8002605AA0000302705AB002A08AC072B0815
:102FC800AD3D2A08A4022B08A53BFC30A405FF3020
:102FD800A50524082504031908002C0886002D08D7
:102FE8008700220881000130A4020030A53B01308F
:102FF800AC070030AD3DED2F463461346E345F349C
:10300800503457344D345F34563461346C3475342D
:1030180065342034693473342034253464342034DE
:10302800763461346C3475346534203469347334DF
:1030380020342534643420340A340034463461346E
:103048006E345F34503457344D345F345634613401
:103058006C34753465342034693473342034253441
:08306800643420340A34003402
:023FFE00553438
:020000040001F9
:08000E00ECFFF3FFFFFFFFFF11
:00000001FF
