:020000040000FA
:040800008431412CD2
:1008060008007E1484312100901E102C2000901EBA
:10081600102C9731202784313F2C0B1F3F2C2100B1
:10082600111D1C2C2000111D1C2C96314E268431C6
:100836003F2C2100911D262C2000911D262C86314F
:10084600492684313F2C2100111E332C2000111E15
:10085600332C22006C088A006B080A0084313F2C76
:100866002100911E3F2C2000911E3F2C22006A0879
:100876008A0069080A0084317E1009008431432CFD
:10088600F430840087308500E03086000130870030
:100896000B30963163268431F701F801F901FA012C
:1008A600FB01FC0154308400003085001C30963179
:1008B6005D268431E2308400003085000E309631AA
:1008C6005D26843120308400013085004130963128
:1008D6005D268431A0308400013085004030963199
:1008E6005D268431203084000230850050309631F8
:1008F6005D268431A0308400023085004030963178
:100906005D26843120308400033085002030963106
:100916005D268431A0308400033085004030963156
:100926005D268431203084000430850040309631C5
:100936005D267E1020009731AC2F2000BA01BB0146
:10094600BC01E330B5003508BA000030A000A100B4
:100956000230A2000030A3003B308B319623843155
:1009660040302000A8000030A9003A30B500350814
:10097600AA000130AB000030AC003B30AD000030C7
:10098600AE000230AF000030B0008A31C922843197
:1009960020003C08B500B6013B08B700B80137088F
:1009A600B800B70135083707D9003608383DDA00F0
:1009B600DB01DA1BDB035B08DC005C085B045A0422
:1009C6005904031908005C08A3005B08A2005A0832
:1009D600A1005908A0000030A7000030A60044304E
:1009E600A500A430A40089312221843120002008EA
:1009F600B5002108B6002208B7002308B800103059
:100A0600B900B837B70CB60CB50CB90B042DB3301A
:100A16003507D900ED30363DDA00FF30373DDB00D3
:100A2600FF30383DDC000030A3000030A20000306B
:100A3600A1006430A0005C08A7005B08A6005A0865
:100A4600A5005908A4008B31142384312000200806
:100A5600B5003508DE005E08B5003508DD005E0825
:100A6600803A4E3E03189A2D6908803AB5005E0812
:100A7600803AB502031C412D6408962D6908803A18
:100A8600B5005E08803AB5020318532D6808803A0F
:100A9600B5005E08803AB502031C532D6308962DF7
:100AA6006808803AB5005E08803AB5020318652DDD
:100AB6006708803AB5005E08803AB502031C652DCA
:100AC6006208962D6708803AB5005E08803AB5023E
:100AD6000318782D6608803AB5005E08803AB5029C
:100AE600031C782D21006D08952D6608803AB50007
:100AF6005E08803AB50203188B2D6508803AB5006A
:100B06005E08803AB502031C8B2D21006C08952DDA
:100B16006508803AB5005E08803AB50203189B2D39
:100B260021006B082000B5003508E1009B2DE1018E
:100B36006430A6000030A7006108B500B60135088C
:100B4600A0003608A1003F30A2000130A300973173
:100B5600C727843120002108A9002008A800873172
:100B6600A227843120002708B0002608AF0097315D
:100B76006027843120005D08803A4E3E0318262EF9
:100B86006908803AB5005D08803AB502031CCD2D90
:100B96006408222E6908803AB5005D08803AB502DD
:100BA6000318DF2D6808803AB5005D08803AB50263
:100BB600031CDF2D6308222E6808803AB5005D0805
:100BC600803AB5020318F12D6708803AB5005D0832
:100BD600803AB502031CF12D6208222E6708803A7E
:100BE600B5005D08803AB5020318042E6608803AFF
:100BF600B5005D08803AB502031C042E21006D087D
:100C0600212E6608803AB5005D08803AB5020318C1
:100C1600172E6508803AB5005D08803AB502031CB8
:100C2600172E21006C08212E6508803AB5005D0854
:100C3600803AB5020318272E21006B082000B50064
:100C46003508E000272EE0016430A6000030A7003A
:100C56006008B500B6013508A0003608A1003F308F
:100C6600A2000130A3009731C72784312000210854
:100C7600A9002008A8008731A22784312000270870
:100C8600B0002608AF00973179270800200091119F
:100C96002400951F762F9513FA017808033E8600E7
:100CA60001308700403FF300413FF400730886009F
:100CB6007408870001308100F80108002000D6186A
:100CC60008005508F3007308F8005508860001303F
:100CD60087000108F3007308F900550A8600013001
:100CE6008700403F2100E200413FE3000530F3006A
:100CF60073082000D5075508613A031D862E5C301F
:100D0600F3007308D5005610550854060319D61477
:100D1600240016140230F3007308FA000800212F8D
:100D2600161F9E2E0130F30073082000D8070430EA
:100D36009731E32708007C08F4007B08F300F436BB
:100D4600F30C730891007B1CAD2E0B30F300730877
:100D5600FA0008000330F3007308FA000800161FB3
:100D6600BD2E0130F30073082000D80704309731F8
:100D7600E327080096147C08F4007B08F300740847
:100D8600F300F40106307305F50000307405F60033
:100D9600F0307504FB0000307604FC007B14200064
:100DA600EA01EA0A8D2E20006A030319F72E2100B4
:100DB6006208860063088700403FFB00413FFC0055
:100DC60062088600630887004331403F2200C00066
:100DD600413FC10021006208860063088700423156
:100DE6000108F3007308F7007B08240091007B1CC0
:100DF600AD2E0530F3007308FA000800161F0E2FFB
:100E06000130F30073082000D807240016130530BC
:100E16009731E32708000130F702770A031D232FD5
:100E260005302100E2070030E33D0130F902031DE1
:100E3600202F00309731E3270800240096148D2ECA
:100E4600220040088600410887000108240091001E
:100E560001302200C0070030C13D0800161F3E2F9A
:100E66000130F30073082000D80704309731E327D8
:100E760024001613080096150830F3007308FA00CC
:100E860008000830F3007308FA00961508002200DF
:100E960040088600410887002400110881000130BF
:100EA6002200C0070030C13D0130F7020319622F4E
:100EB600240096120630F3007308FA00662F240009
:100EC600961697310F272400161608000030973122
:100ED600E32708000130F30073082000D807063026
:100EE6009731E32708007A08F300F4017408003A02
:100EF60003197E2F6D2F7308003A0319612E013AEC
:100F06000319922E033A0319D62E013A0319012F1B
:100F1600073A0319692F013A0319312F033A0319C6
:100F2600442F013A0319692F0F3A03194A2F023A3F
:100F36000319932E013A0319B22E6D2F08002000D3
:100F4600AC01A71FAD2FA609A709A60A0319A70A70
:100F5600AC01AC0AA91FB82FA809A909A80A031948
:100F6600A90A0130AA002A08AC06AD01AE0126087E
:100F760027040319E72FAB01AB0AA71BCC2F0130BF
:100F8600A635A70D890BC32F0130AA002A08AB0787
:100F9600C02F0130AD35AE0D890BCD2F27082902A4
:100FA600031DD72F26082802031CDE2F2608A802B9
:100FB6002708A93B2D140130A736A60C890BDF2F75
:100FC6000130AB02031DCC2F2C080319EF2FAD09FE
:100FD600AE09AD0A0319AE0A2E08A7002D08A60011
:100FE6000800D834E234EC34F63400346434503437
:100FF6003C3428341434003408004F3020009E005E
:101006009D01911004309F0008002000A3002308D2
:10101600A200A20DA20D21001D0820002206033900
:10102600220621009D001D140D30890B1828000092
:1010360021009D149D181D281C082000A1002100D8
:101046001B082000A0000800403022006D02031893
:10105600442820006E08A03E860003308700010861
:1010660023009A000130F00070082000EE0740309F
:101076006E020318EE010130F00070082200ED0741
:1010860008002100111208002000A600A401A501F5
:101096002508803AA30080302302031D5428220825
:1010A600240203180800200024082607A3002308AA
:1010B6008600870101088831CF2088310130200061
:1010C600A4070030A53D4B28963169268831893121
:1010D600FF2188319631A7268831963159268831E5
:1010E6009731922788319631C326883196317126F9
:1010F60088318831002088319631B9268831973178
:10110600342788318A313A22080000308B1B01309F
:101116002000A300210831009200200020083100A1
:1011260091002000220831009300151715158B1326
:1011360055309600AA30960095149518A0281511DA
:101146002000230C031C8B1303188B1708002000A8
:101156002508A7002408A600A635A70D20088600A6
:10116600210887002608C03F2708C13F2008023E05
:10117600A6000030213DA700260886002708870024
:1011860023088100200886002108870043312208B1
:10119600C03F0030C13F08002000A10022006D08BA
:1011A6000319D1282100111ADD2820002108230067
:1011B6009A00F328111220002108A0006F08A03E13
:1011C600860003308700200881000130A000200837
:1011D600EF0740306F020318EF0101302200ED02E5
:1011E6002100111608002000A7002408A6002308E5
:1011F600A500A535A60D270886000130870025081D
:10120600C03F2608C13F270886000130870001300D
:1012160081044131003081042208A5002708023EDE
:10122600860001308700250881002708033E8600D6
:10123600013087002008C03F2108C13F0800003068
:101246002000AB000030AA000030A9000030A80042
:10125600201C35292408A8072508A93D2608AA3DEB
:101266002708AB3D0130A435A50DA60DA70D890BAA
:1012760036290130A336A20CA10CA00C890B3D29FE
:101286002308220421042004031D2B292B08A30074
:101296002A08A2002908A1002808A00008002000AA
:1012A600A100A201A2016B08031989296C08203E3E
:1012B6008600023087000108A00020082100EF0008
:1012C60020006C08A03E8600023087000108A000BE
:1012D600210886008701200881000130A00020082F
:1012E600EC070130A0002008A10740306C0203186B
:1012F600EC012100911201302000EB022100911631
:1013060001302000A0002008A20756292208080064
:1013160020006D08203E86000230870081012300F0
:101326001D1DA22920006D08203E86000230870080
:101336008114220068088A0067080A0089312300A0
:101346009D1CB22920006D08203E860002308700D1
:101356000115220066088A0065080A008931200006
:101366006D08203E86000230870001080319C22955
:10137600220064088A0063080A0089310800973150
:10138600482708002000AF010230AD002D08B50047
:101396003030A0000030A1002A08AD002D08A200C0
:1013A6002B08AE002E08A3002908A5002808A400D3
:1013B6008831AA208931200035030319080030300E
:1013C600A0000030A1003530AD002D08A20001308C
:1013D6008A31812289310230200035060319EE292F
:1013E60035080319080003302F06031908000130D9
:1013F600AD002D08AF07DE2922008C018D018E017C
:10140600373021008C0040308D002F308E003C306C
:1014160023008E008D018C0124008D0130308C005C
:101426008E0125008C018D018E01373026008C003F
:10143600F0308D00FF308E003F3027008C00F030FA
:101446008D00FF308E000E303C00A4000430A0005A
:1014560018303D00940014309F001930950002307A
:10146600A6000330A70005303C00A10008002100BB
:1014760091128B302000A0000930A10096319526EC
:101486008A312100111227302000A0000830A10067
:1014960096319E268A31083023009F0090309D00A9
:1014A60024309E0040309B0003309C000330200017
:1014B600A0000430A100963183268A3151302000E5
:1014C600A0001630A10096318C268A314B302000C0
:1014D600A0001630A10096317A262100EF012000E7
:1014E600EF01EE014030A20022082200ED002000AC
:1014F600ED01EC01EB012100911608002000A4008B
:101506005618B82A0230A30022088600870123084D
:101516008100540A8600013087002008C03F210858
:10152600C13F2408A3005408860001308700230821
:1015360081005408033E8600013087002208C03F20
:101546000030C13F0530A3002308D4075408613A90
:10155600031DB12A5C30A3002308D400D610550819
:101566005406031DBD2A5614BD2A2208860087018B
:101576008101810A22088600870102300106031DC7
:101586000800963155262000911508002000B30169
:101596000230B1003108B4004830A0000130A1008B
:1015A6002A08B1003108A2002B08B2003208A300B5
:1015B6002908A5002808A4008831AA208A3120001D
:1015C6002E08A1002D08A0002F08B1003108A200A6
:1015D6002908A4002808A3004D308831F6208A3156
:1015E60020003403031908004830A0000130A10090
:1015F6003430B1003108A20002308A3181228A31AA
:101606000230200034060319032B3408031908009E
:1016160003303306031908000130B1003108B3075F
:10162600F32A2000AA01A31F252BA009A109A209BC
:10163600A309A00A0319A10A0319A20A0319A30AF6
:10164600AA01AA0AA71F362BA409A509A609A70954
:10165600A40A0319A50A0319A60A0319A70A013041
:10166600A8002808AA060030AE000030AD00003001
:10167600AC000030AB002308220421042004031927
:101686007F2BA901A90AA31B542B0130A035A10D5C
:10169600A20DA30D890B492B0130A8002808A90724
:1016A600462B0130AB35AC0DAD0DAE0D890B552B70
:1016B60023082702031D692B22082602031D692B16
:1016C60021082502031D692B20082402031C742B04
:1016D6002008A4022108A53B2208A63B2308A73B15
:1016E6002B140130A336A20CA10CA00C890B752B70
:1016F6000130A902031D542B2A0803198D2BAB09AF
:10170600AC09AD09AE09AB0A0319AC0A0319AD0A57
:101716000319AE0A2E08A3002D08A2002C08A1006A
:101726002B08A00008002000A8002808A400240810
:10173600A90022082304031908002008A400290888
:1017460086008701240881002008A40022082907B2
:10175600A5002508FF3E8600870124088100003089
:101766002302033003192202031C08002008A400E8
:10177600290A86008701240881002008A400290878
:10178600023E86008701240881002008A400220862
:101796002907A5002508FE3E86008701240881004A
:1017A6002008A40022082907A5002508FD3E86007A
:1017B6008701240881000030230207300319220222
:1017C600031C08002008A4002908033E86008701A0
:1017D600240881002008A40022082907A50025085E
:1017E600FC3E860087012408810000302302093070
:1017F60003192202031C08002909A4002A09A500CE
:10180600A40A0319A50A03302405A60000302505FD
:10181600A7002608A4002408A9072608A20227086C
:10182600A33BFC30A205FF30A305220823040319BD
:1018360008002008A40029088600870124088100E2
:101846000130A2020030A33B0130A4002408A907FE
:10185600182CA03086000030870040302000D000D1
:1018660000301E00D00B342C6B08031908004130E1
:101876006B02031808000030A000A1004030A2004F
:101886000030A300A0308B3196238C31A0308931F3
:1018960052218C312000D00050082100E0002008A1
:1018A6002000D00050082300A000210021082000BD
:1018B600D00050082300A100210022082000D000FB
:1018C60050082300A200210020082000D000500864
:1018D6002300A000210021082000D000500823008A
:1018E600A100210022082000D00050082300A200F9
:1018F60002302102031C08002100E1012300210817
:10190600FE3E2000D000FF3003180030D100510801
:10191600803A803C031D922C500821006102031876
:10192600AC2C21006108033EA03E86008701010819
:101936002000D00021006108A33E86000130870008
:101946002000500881000130D00050082100E10736
:10195600812C23002003031DBA2C033021006006CE
:10196600031DBA2C230022088E31BA260800033044
:1019760023002006031DCF2C0F3021006002031820
:10198600CF2C230023082000D0005008B6002300E7
:1019960022088D318E2508009631D826080026307B
:1019A60086000030870020302000A40000301E0092
:1019B600A40BDA2C883167208C318B170B1720008B
:1019C600C601C7014608003EA000F030473DA10011
:1019D6009631F1268C312000A4004608263E86006A
:1019E6008701240881000130C6070030C73D00305A
:1019F60047020F3003194602031CE52C260A031D75
:101A06005C2D0030A000F030A100AA30A40024080C
:101A1600A200883188208C312000C601C701460803
:101A2600043EA000F030473DA1004608E03E860097
:101A3600013087000108A4002408A200883188200C
:101A46008C3101302000C6070030C73D0030470208
:101A56000B3003194602031C122D09302000A50085
:101A66001E30A400E430890B362DA40B362DA50BB1
:101A7600362D00002000C601C7014608003EA00022
:101A8600F030473DA1009631F1268C312000A400AC
:101A96004608263E86008701240881000130C607D5
:101AA6000030C73D003047020F3003194602031CC1
:101AB600402D2A08A4002408E9002B08A4002408C5
:101AC600E8002C08A4002408E7002D08A400240838
:101AD600E6002E08A4002408E5002F08A400240828
:101AE600E4003008A4002408E3003108A400240818
:101AF600E2003208A40024082100ED00200033088B
:101B0600A40024082100EC0020003408A4002408C6
:101B16002100EB0008002000BC000030C0000030AF
:101B2600BF000030BE000030BD000430B7003708EB
:101B3600BD000230B7003708BE003C08B7003708C2
:101B4600BF00972E3608B7003708E1006430A600BC
:101B56000030A7006108B700B8013708A0003808B0
:101B6600A1003F30A2000130A3009731C7278D3175
:101B760020002108A9002008A8008731A2278D315E
:101B860020002708B0002608AF00973160278D3166
:101B960004302000B7003708BD000330B70037080F
:101BA600BE003C08B7003708BF006108382E36086B
:101BB600B7003708E0006430A6000030A7006008D0
:101BC600B700B8013708A0003808A1003F30A200CE
:101BD6000130A3009731C7278D3120002108A900C5
:101BE6002008A8008731A2278D3120002708B000E1
:101BF6002608AF00973179278D3104302000B700D1
:101C06003708BD000330B7003708BE003C08B700F0
:101C16003708BF006008382E3608B7003708DF00DF
:101C26004030B7003708B9005F08B7003708BA0078
:101C36005C30A8000030A9003930B7003708AA0088
:101C46000230AB000030AC008931C5218D31043043
:101C56002000B7003708BD000330B7003708BE00C4
:101C66003C08B7003708BF005F08B7003708C00058
:101C7600B02E0430B7003708BD000230B700370871
:101C8600BE003C08B7003708BF003E08013EB7005B
:101C96003708A2003D30883147208D319731002723
:101CA6008D319631E3268D3129302000B8009630EB
:101CB600B7007F30890B5D2EB70B5D2EB80B5D2EFE
:101CC6002100EE01EE0AB02E0030A000F030A10097
:101CD600AA30B7003708A200883188208D3120004D
:101CE600BB013B08043EA000F0300318F130A10010
:101CF6003B08A33E8600013087000108B70037087D
:101D0600A200883188208D3101302000B7003708C5
:101D1600BB070B303B020318632E742EFF30B7004F
:101D26003708BD00BE01B02E3C08B700B801380820
:101D3600003A03199F2E912E3708033A0319A52D51
:101D4600073A0319DA2D0E3A03190F2E013A031931
:101D56003C2E063A0319672E912E20003E08013EBE
:101D6600B7003708A2003D30883147200800200020
:101D7600BB003E308600003087001030B5000030D2
:101D86001E00B50BC32EFF30B5003508BE00BF01DF
:101D9600C02F0230B5003508BE000430B500350846
:101DA600BF00230022082000B5003508C0005908EE
:101DB600B5005A08B6005B08B7005C08B8000830E2
:101DC600B900B837B70CB60CB50CB90BE42E35080C
:101DD600BA003A08C1005908762F0230B500350816
:101DE600BE000330B5003508BF00230022082000DE
:101DF600B5003508C0006108B5003508C1000230DD
:101E0600B5003508BE000330B5003508BF00230015
:101E160022082000B5003508C0006008612F123086
:101E2600883108208E3120002108CF002008CE00FE
:101E36000230B5003508BE000430B5003508BF00D5
:101E4600230022082000B5003508C0004F08B50061
:101E56003508C1004E08762F1330132F1530132F77
:101E66004030B5003508BC005C30A8000030A90041
:101E76003C30B5003508AA000130AB000030AC009C
:101E86005F08B600B7013608AD003708AE0001306E
:101E9600AF000030B0008A31C9228E3102302000F6
:101EA600B5003508BE000330B5003508BF00230075
:101EB60022082000B5003508C0005F08B5003508C7
:101EC600C100F72F0230B5003508BE000430B5005A
:101ED6003508BF00230022082000B5003508C000E1
:101EE600C101C10A0330B5003508C200F72F023020
:101EF600B5003508BE000D30B5003508BF0023001B
:101F060022082000B5003508C000BD013D08043E8A
:101F1600A000F0300318F130A1009631F1268E3181
:101F26002000B5003D08033E3E3E86008701350889
:101F360081000130B5003508BD070B303D0203189E
:101F4600F72F892F0230B5003508BE000530B500E1
:101F56003508BF00230022082000B5003508C00060
:101F660000300C190130C10000300E180130C200DB
:101F760000308E180130C300F72F3B08B500B601BC
:101F86003608003A0319C82FF72F3508013A031906
:101F9600CC2E033A0319CC2E013A0319F02E073A38
:101FA6000319022F013A0319122F033A03192F2F8F
:101FB600013A0319312F0F3A0319CC2E013A0319AE
:101FC600CC2E033A0319332F063A0319652F013A2B
:101FD60003197A2F033A0319A52F013A0319CC2EB8
:101FE6001F3A0319CC2EF72F3F08013EB5003508DE
:0A1FF600A2003E30883147200800A9
:102C960097314827080020001111080023001D1253
:102CA6001D1608007A0803190800552E1630210053
:102CB60097000800640080010131890B5E2E003404
:102CC600FE0012001E00FE0B642E0034320091013D
:102CD60092019301940195019601080001302100AB
:102CE6009D00E0309E009F019B019C010800200092
:102CF60021082200E400200020082200E30008004A
:102D0600200021082200E800200020082200E70019
:102D16000800200021082200E600200020082200EA
:102D2600E5000800200021082200EA002000200813
:102D36002200E9000800200021082200EC00200003
:102D460020082200EB0008006030320099009B0149
:102D56009D0107309F009E010800200021082200E7
:102D6600E200200020082200E100080080302C004C
:102D76009900980197011F08FC3901389F00080047
:102D860080302C009C009B019A011F08F3390438FF
:102D96009F00080022006108620403190800620807
:102DA6008A0061080A0096310800FF302000A7005B
:102DB6002708A800A201A20A283088314720080067
:102DC6003100910104309200930194011430950072
:102DD60055309600AA309600951408002000210868
:102DE60031009200200020083100910015171514BB
:102DF60000000000310013080800FE303100910089
:102E06001F309200930194011430950055309600BE
:102E1600AA3096009514080005302100E20700301C
:102E2600E33D0130F902031D1D2F0430F000700848
:102E3600FA000800FA01FA0A080020009012013090
:102E46002200BE070030BF3D00303F021930031993
:102E56003E02031C08009631CD262200BE01BF01AA
:102E66000800463020009800F9309600950190122F
:102E760021009016FF302000A0000730A1009631F7
:102E8600B026893020009700080023001908F000BA
:102E960020006D08A03E8600023087007008810081
:102EA6000130F0007008ED0740306D020318ED01A7
:102EB6000130F0007008EB07080020003008B2006F
:102EC6002F08B100B236B10CB236B10C31082C0065
:102ED600980020002F080339B1000530B135FF3EB8
:102EE600031D712F31352C00970008002000300893
:102EF600B2002F08B100B236B10CB236B10C3108AF
:102F06002C009B0020002F080339B1000530B13595
:102F1600FF3E031D8A2F31352C009A0008005C30D5
:102F26002000A0002008D5005C30A0002008D400B6
:102F3600D6145610D8012400940128309500970124
:102F460030309200200091111111210091151115B8
:102F560008008C31D224973129302000D3009630D6
:102F6600D2007F30890BB52FD20BB52FD30BB52FDF
:102F76008431A02497318C312C24973121006E089E
:102F86000319AF2F0100AF2F2000A401A501201CBB
:102F9600D02F2208A4072308A53D0130A235A30D92
:102FA600890BD12F0130A136A00C890BD62F200812
:102FB6002104031DCA2F2508A1002408A00008002B
:102FC600F200240016157808033E860001308700BB
:102FD600160001040319FE2F7808033E860001300F
:102FE6008700403FF000413FF100700886007108FD
:0A2FF600870072088100FA0108004C
:023FFE00553438
:020000040001F9
:08000E00ECFFF3FFFFFFFFFF11
:00000001FF
