:020000040000FA
:1000000080314128080008007E1480312100901EB4
:1000100010282000901E10288B312C2380313F287F
:100020000B1F3F282100111D1C282000111D1C281A
:100030008A314F2280313F282100911D262820003F
:10004000911D26288231492280313F282100111E2E
:1000500033282000111E332822006C088A006B0808
:100060000A0080313F282100911E3F282000911E68
:100070003F2822006A088A0069080A0080317E1041
:10008000090080314328E43084008A308500E03064
:100090008600013087000B308A3164228031F701FD
:1000A000F801F901FA01FB01FC0154308400003031
:1000B00085001C308A315E228031E23084000030BD
:1000C00085000E308A315E2280312030840001307C
:1000D000850041308A315E228031A03084000130B9
:1000E000850040308A315E22803120308400023029
:1000F000850050308A315E228031A0308400023089
:10010000850040308A315E22803120308400033007
:10011000850020308A315E228031A0308400033097
:10012000850040308A315E228031203084000430E6
:10013000850040308A315E227E1020008B31B82B42
:100140002000BA01BB01BC01E330B5003508BA009C
:100150000030A000A1000230A2000030A3003B301C
:100160008F316A27803140302000A8000030A9007C
:100170003A30B5003508AA000130AB000030AC00C1
:100180003B30AD000030AE000230AF000030B000B8
:100190008E31CD26803120003C08B500B6013B08E9
:1001A000B700B8013708B800B70135083707D900DC
:1001B0003608383DDA00DB01DA1BDB035B08DC00C4
:1001C0005C085B045A045904031908005C08A30086
:1001D0005B08A2005A08A1005908A0000030A7003F
:1001E0000030A6004430A500A430A4008D3126259F
:1001F000803120002008B5002108B6002208B70091
:100200002308B8001030B900B837B70CB60CB50CDD
:10021000B90B0429B3303507D900ED30363DDA008B
:10022000FF30373DDB00FF30383DDC000030A300FD
:100230000030A2000030A1006430A0005C08A700DC
:100240005B08A6005A08A5005908A4008731762744
:10025000803120002008B5003508DE005E08B500BA
:100260003508DD005E08803A4E3E03189A29690879
:10027000803AB5005E08803AB502031C4129640843
:1002800096296908803AB5005E08803AB5020318DD
:1002900053296808803AB5005E08803AB502031C0D
:1002A0005329630896296808803AB5005E08803AA9
:1002B000B502031865296708803AB5005E08803AE0
:1002C000B502031C6529620896296708803AB500C3
:1002D0005E08803AB502031878296608803AB500AE
:1002E0005E08803AB502031C782921006D08952923
:1002F0006608803AB5005E08803AB50203188B297B
:100300006508803AB5005E08803AB502031C8B2967
:1003100021006C0895296508803AB5005E08803A8E
:10032000B50203189B2921006B082000B500350891
:10033000E1009B29E1016430A6000030A7006108BC
:10034000B500B6013508A0003608A1003F30A20074
:100350000130A3008B31D323803120002108A90074
:100360002008A8008F311827803120002708B0000E
:100370002608AF008B316C23803120005D08803A65
:100380004E3E0318262A6908803AB5005D08803A77
:10039000B502031CCD296408222A6908803AB500F9
:1003A0005D08803AB5020318DF296808803AB50075
:1003B0005D08803AB502031CDF296308222A680819
:1003C000803AB5005D08803AB5020318F129670844
:1003D000803AB5005D08803AB502031CF129620835
:1003E000222A6708803AB5005D08803AB5020318F2
:1003F000042A6608803AB5005D08803AB502031CFD
:10040000042A21006D08212A6608803AB5005D089B
:10041000803AB5020318172A6508803AB5005D08CE
:10042000803AB502031C172A21006C08212A6508AE
:10043000803AB5005D08803AB5020318272A2100EA
:100440006B082000B5003508E000272AE001643081
:10045000A6000030A7006008B500B6013508A0006E
:100460003608A1003F30A2000130A3008B31D32316
:10047000803120002108A9002008A8008F3118270A
:10048000803120002708B0002608AF008B3185237B
:100490000800200091112400951F762B9513FA0176
:1004A0007808033E860001308700403FF300413F5B
:1004B000F400730886007408870001308100F80199
:1004C00008002000D61808005508F3007308F8004B
:1004D00055088600013087000108F3007308F90011
:1004E000550A860001308700403F2100E200413F6D
:1004F000E3000530F30073082000D5075508613A82
:10050000031D862A5C30F3007308D5005610550889
:1005100054060319D614240016140230F30073088D
:10052000FA000800212B161F9E2A0130F3007308E1
:100530002000D80704308B31EF2308007C08F4003A
:100540007B08F300F436F30C730891007B1CAD2A92
:100550000B30F3007308FA0008000330F30073084F
:10056000FA000800161FBD2A0130F30073082000AE
:10057000D80704308B31EF23080096147C08F40070
:100580007B08F3007408F300F40106307305F500EE
:1005900000307405F600F0307504FB00003076047E
:1005A000FC007B142000EA01EA0A8D2A20006A037D
:1005B0000319F72A21006208860063088700403F7C
:1005C000FB00413FFC00620886006308870043315E
:1005D000403F2200C000413FC10021006208860068
:1005E0006308870042310108F3007308F7007B08B5
:1005F000240091007B1CAD2A0530F3007308FA003B
:100600000800161F0E2B0130F30073082000D807D6
:100610002400161305308B31EF2308000130F70258
:10062000770A031D232B05302100E2070030E33D4C
:100630000130F902031D202B00308B31EF2308001D
:10064000240096148D2A2200400886004108870065
:1006500001082400910001302200C0070030C13D94
:100660000800161F3E2B0130F30073082000D80746
:1006700004308B31EF232400161308009615083040
:10068000F3007308FA0008000830F3007308FA005A
:1006900096150800220040088600410887002400C3
:1006A0001108810001302200C0070030C13D013037
:1006B000F7020319622B240096120630F300730828
:1006C000FA00662B240096168B311B232400161685
:1006D000080000308B31EF2308000130F30073086D
:1006E0002000D80706308B31EF2308007A08F3008A
:1006F000F4017408003A03197E2B6D2B7308003A3D
:100700000319612A013A0319922A033A0319D62AD6
:10071000013A0319012B073A0319692B013A03190E
:10072000312B033A0319442B013A0319692B0F3A71
:1007300003194A2B023A0319932A013A0319B22AE0
:100740006D2B08002000BB003E3086000030870083
:100750001030B50000301E00B50BAB2BFF30B500DC
:100760003508BE00BF01A82C0230B5003508BE0018
:100770000430B5003508BF00230022082000B50072
:100780003508C0005908B5005A08B6005B08B70024
:100790005C08B8000830B900B837B70CB60CB50C17
:1007A000B90BCC2B3508BA003A08C10059085E2CA9
:1007B0000230B5003508BE000330B5003508BF0073
:1007C000230022082000B5003508C0006108B500EC
:1007D0003508C1000230B5003508BE000330B50051
:1007E0003508BF00230022082000B5003508C000EE
:1007F0006008492C12308C310C24833120002108F0
:10080000CF002008CE000230B5003508BE0004300D
:10081000B5003508BF00230022082000B5003508C8
:10082000C0004F08B5003508C1004E085E2C1330DB
:10083000FB2B1530FB2B4030B5003508BC005C307D
:10084000A8000030A9003C30B5003508AA000130EE
:10085000AB000030AC005F08B600B7013608AD0051
:100860003708AE000130AF000030B0008E31CD2629
:10087000833102302000B5003508BE000330B500DA
:100880003508BF00230022082000B5003508C0004D
:100890005F08B5003508C100DF2C0230B50035080F
:1008A000BE000430B5003508BF0023002208200038
:1008B000B5003508C000C101C10A0330B5003508D4
:1008C000C200DF2C0230B5003508BE000D30B50087
:1008D0003508BF00230022082000B5003508C000FD
:1008E000BD013D08043EA000F0300318F130A10026
:1008F0008A31FD2283312000B5003D08033E3E3E93
:1009000086008701350881000130B5003508BD0734
:100910000B303D020318DF2C712C0230B500350876
:10092000BE000530B5003508BF00230022082000B6
:10093000B5003508C00000300C190130C10000308E
:100940000E180130C20000308E180130C300DF2CB9
:100950003B08B500B6013608003A0319B02CDF2C6D
:100960003508013A0319B42B033A0319B42B013AA1
:100970000319D82B073A0319EA2B013A0319FA2B6A
:10098000033A0319172C013A0319192C0F3A0319CA
:10099000B42B013A0319B42B033A03191B2C063A62
:1009A00003194D2C013A0319622C033A03198D2CBB
:1009B000013A0319B42B1F3A0319B42BDF2C3F085B
:1009C000013EB5003508A2003E308C314B240800B2
:1009D0002000BC000030C0000030BF000030BE006E
:1009E0000030BD000430B7003708BD000230B7004A
:1009F0003708BE003C08B7003708BF00F12D3608A5
:100A0000B7003708E1006430A6000030A700610895
:100A1000B700B8013708A0003808A1003F30A20095
:100A20000130A3008B31D323843120002108A90099
:100A30002008A8008F311827843120002708B00033
:100A40002608AF008B316C23843104302000B700BE
:100A50003708BD000330B7003708BE003C08B700B8
:100A60003708BF006108922D3608B7003708E0004C
:100A70006430A6000030A7006008B700B80137084E
:100A8000A0003808A1003F30A2000130A3008B3144
:100A9000D323843120002108A9002008A8008F3129
:100AA0001827843120002708B0002608AF008B31BA
:100AB0008523843104302000B7003708BD0003309F
:100AC000B7003708BE003C08B7003708BF00600811
:100AD000922D3608B7003708DF004030B7003708DE
:100AE000B9005F08B7003708BA005C30A8000030D2
:100AF000A9003930B7003708AA000230AB00003037
:100B0000AC008D31C925843104302000B70037088E
:100B1000BD000330B7003708BE003C08B7003708F7
:100B2000BF005F08B7003708C0000A2E0430B700C6
:100B30003708BD000230B7003708BE003C08B700D8
:100B40003708BF003E08013EB7003708A2003D301D
:100B50008C314B2484318B310C2384318A31EF2248
:100B6000843129302000B8009630B7007F30890BDF
:100B7000B72DB70BB72DB80BB72D2100EE01EE0A3C
:100B80000A2E0030A000F030A100AA30B7003708CC
:100B9000A2008C318C2484312000BB013B08043E30
:100BA000A000F0300318F130A1003B08A33E8600FE
:100BB000013087000108B7003708A2008C318C246F
:100BC000843101302000B7003708BB070B303B02EF
:100BD0000318BD2DCE2DFF30B7003708BD00BE0174
:100BE0000A2E3C08B700B8013808003A0319F92D5D
:100BF000EB2D3708033A0319FF2C073A0319342D5C
:100C00000E3A0319692D013A0319962D063A031974
:100C1000C12DEB2D20003E08013EB7003708A20091
:100C20003D308C314B240800263086000030870090
:100C300020302000A40000301E00A40B1C2E8C319C
:100C40006B2486318B170B172000C601C70146089D
:100C5000003EA000F030473DA1008A31FD228631E0
:100C60002000A4004608263E860087012408810053
:100C70000130C6070030C73D003047020F3003196E
:100C80004602031C272E260A031D9E2E0030A000BC
:100C9000F030A100AA30A4002408A2008C318C24DA
:100CA00086312000C601C7014608043EA000F0308E
:100CB000473DA1004608E03E86000130870001085C
:100CC000A4002408A2008C318C248631013020003D
:100CD000C6070030C73D003047020B3003194602FB
:100CE000031C542E09302000A5001E30A400E4305F
:100CF000890B782EA40B782EA50B782E00002000EF
:100D0000C601C7014608003EA000F030473DA100E3
:100D10008A31FD2286312000A4004608263E860046
:100D20008701240881000130C6070030C73D00302C
:100D300047020F3003194602031C822E2A08A40022
:100D40002408E9002B08A4002408E8002C08A400CB
:100D50002408E7002D08A4002408E6002E08A400BB
:100D60002408E5002F08A4002408E4003008A400AB
:100D70002408E3003108A4002408E2003208A4009B
:100D800024082100ED0020003308A40024082100DD
:100D9000EC0020003408A40024082100EB00080027
:100DA000A03086000030870040302000D0000030A6
:100DB0001E00D00BD82E6B080319080041306B02BF
:100DC000031808000030A000A1004030A20000304D
:100DD000A300A0308F316A278631A0308D3156258F
:100DE00086312000D00050082100E00020082000BB
:100DF000D00050082300A000210021082000D000CE
:100E000050082300A100210022082000D000500833
:100E10002300A200210020082000D0005008230059
:100E2000A000210021082000D00050082300A100CC
:100E3000210022082000D00050082300A200023028
:100E40002102031C08002100E10123002108FE3ECD
:100E50002000D000FF3003180030D1005108803A44
:100E6000803C031D362F5008210061020318502FCB
:100E700021006108033EA03E860087010108200092
:100E8000D00021006108A33E8600013087002000C9
:100E9000500881000130D00050082100E107252FC3
:100EA00023002003031D5E2F033021006006031D75
:100EB0005E2F230022088331A22308000330230081
:100EC0002006031D732F0F30210060020318732FBB
:100ED000230023082000D0005008B6002300220879
:100EE0008431E82408008A31D92208002000AA01B0
:100EF000A31F872FA009A109A209A309A00A03190A
:100F0000A10A0319A20A0319A30AAA01AA0AA71F80
:100F1000982FA409A509A609A709A40A0319A50AD7
:100F20000319A60A0319A70A0130A8002808AA066F
:100F30000030AE000030AD000030AC000030AB003F
:100F400023082204210420040319E12FA901A90A7E
:100F5000A31BB62F0130A035A10DA20DA30D890B47
:100F6000AB2F0130A8002808A907A82F0130AB3506
:100F7000AC0DAD0DAE0D890BB72F23082702031D55
:100F8000CB2F22082602031DCB2F21082502031D8B
:100F9000CB2F20082402031CD62F2008A4022108EE
:100FA000A53B2208A63B2308A73B2B140130A33600
:100FB000A20CA10CA00C890BD72F0130A902031D94
:100FC000B62F2A080319EF2FAB09AC09AD09AE09FA
:100FD000AB0A0319AC0A0319AD0A0319AE0A2E08AD
:100FE000A3002D08A2002C08A1002B08A0000800D7
:100FF0004F3020009E009D01911004309F0008009A
:101498008B315423080020001111080023001D126D
:1014A8001D1608007A0803190800562A163021006C
:1014B80097000800640080010131890B5F2A00341D
:1014C800FE0012001E00FE0B652A00343200910156
:1014D80092019301940195019601080001302100C1
:1014E8009D00E0309E009F019B019C0108002000A8
:1014F80021082200E400200020082200E300080060
:10150800200021082200E800200020082200E7002F
:101518000800200021082200E60020002008220000
:10152800E5000800200021082200EA002000200829
:101538002200E9000800200021082200EC00200019
:1015480020082200EB0008006030320099009B015F
:101558009D0107309F009E010800200021082200FD
:10156800E200200020082200E100080080302C0062
:101578009900980197011F08FC3901389F0008005D
:1015880080302C009C009B019A011F08F339043815
:101598009F0008002200610862040319080062081D
:1015A8008A0061080A008A310800FF302000A7007D
:1015B8002708A800A201A20A28308C314B24080071
:1015C800D834E234EC34F6340034643450343C34E7
:1015D800283414340034310091010430920093010E
:1015E80094011430950055309600AA309600951451
:1015F8000800200021083100920020002008310056
:101608009100151715140000000031001308080098
:10161800FE30310091001F30920093019401143084
:10162800950055309600AA309600951408000530AC
:101638002100E2070030E33D0130F902031D292BA8
:101648000430F0007008FA000800FA01FA0A0800ED
:101658002000901201302200BE070030BF3D00304C
:101668003F02193003193E02031C08008A31CE22BA
:101678002200BE01BF010800463020009800F93062
:101688009600950190122100901603302000A000CA
:101698000030A1008A31B12289302000970008006B
:1016A80023001908F00020006D08A03E86000230D3
:1016B8008700700881000130F0007008ED074030A5
:1016C8006D020318ED010130F0007008EB07080007
:1016D80020003008B2002F08B100B236B10CB23683
:1016E800B10C31082C00980020002F080339B100F4
:1016F8000530B135FF3E031D7D2B31352C00970099
:10170800080020003008B2002F08B100B236B10C32
:10171800B236B10C31082C009B0020002F08033989
:10172800B1000530B135FF3E031D962B31352C0035
:101738009A0008005C302000A0002008D5005C302A
:10174800A0002008D400D6145610D8012400940113
:101758002830950097013030920020009111111126
:101768002100911511150800863114268B31293076
:101778002000D3009630D2007F30890BC12BD20BCA
:10178800C12BD30BC12B8031A0208B318631D026C1
:101798008B3121006E080319BB2B0100BB2B2000E5
:1017A800A401A501201CDC2B2208A4072308A53DC1
:1017B8000130A235A30D890BDD2B0130A136A00C19
:1017C800890BE22B20082104031DD62B2508A10034
:1017D8002408A0000800F200240016157808033E2B
:1017E8008600013087001600010403190A2C7808C6
:1017F800033E860001308700403FF000413FF10082
:10180800700886007108870072088100FA010800D4
:101818002000A3002308A200A20DA20D21001D088C
:10182800200022060339220621009D001D140D30D8
:10183800890B1C2C000021009D149D18212C1C08CC
:101848002000A10021001B082000A0000800403053
:1018580022006D020318482C20006E08A03E860066
:1018680003308700010823009A000130F000700857
:101878002000EE0740306E020318EE010130F00040
:1018880070082200ED07080021001112080020004E
:10189800A600A401A5012508803AA30080302302F0
:1018A800031D582C220824020318080020002408CD
:1018B8002607A30023088600870101088C31D3245A
:1018C8008C3101302000A4070030A53D4F2C8A310F
:1018D8006A228C318E3103268C318A31A8228C31D0
:1018E8008A315A228C318B319E238C318A31C42221
:1018F8008C318A3172228C318731F8278C318A31C8
:10190800BA228C318B3140238C318E313E2608002F
:1019180000308B1B01302000A30021083100920009
:101928002000200831009100200022083100930097
:10193800151715158B1355309600AA309600951477
:101948009518A42C15112000230C031C8B130318C5
:101958008B17080020002508A7002408A600A63534
:10196800A70D20088600210887002608C03F270801
:10197800C13F2008023EA6000030213DA7002608EE
:101988008600270887002308810020088600210890
:10199800870043312208C03F0030C13F08002000C3
:1019A800A10022006D080319D52C2100111AE12C81
:1019B8002000210823009A00F72C1112200021088A
:1019C800A0006F08A03E8600033087002008810031
:1019D8000130A0002008EF0740306F020318EF0124
:1019E80001302200ED022100111608002000A70096
:1019F8002408A6002308A500A535A60D27088600FB
:101A0800013087002508C03F2608C13F2708860007
:101A180001308700013081044131003081042208FF
:101A2800A5002708023E86000130870025088100AE
:101A38002708033E8600013087002008C03F2108A0
:101A4800C13F080000302000AB000030AA00003081
:101A5800A9000030A800201C392D2408A807250853
:101A6800A93D2608AA3D2708AB3D0130A435A50DA0
:101A7800A60DA70D890B3A2D0130A336A20CA10C97
:101A8800A00C890B412D2308220421042004031DE6
:101A98002F2D2B08A3002A08A2002908A100280836
:101AA800A00008002000A100A201A2016B080319F0
:101AB8008D2D6C08203E8600023087000108A000AA
:101AC80020082100EF0020006C08A03E86000230AC
:101AD80087000108A00021088600870120088100EE
:101AE8000130A0002008EC070130A0002008A10761
:101AF80040306C020318EC012100911201302000E3
:101B0800EB022100911601302000A0002008A20756
:101B18005A2D2208080020006D08203E8600023059
:101B28008700810123001D1DA62D20006D08203E81
:101B38008600023087008114220068088A0067083E
:101B48000A008D3123009D1CB62D20006D08203E13
:101B58008600023087000115220066088A006508A1
:101B68000A008D3120006D08203E86000230870073
:101B780001080319C62D220064088A0063080A00B8
:101B88008D3108008B31542308002000AF0102304A
:101B9800AD002D08B5003030A0000030A1002A08A3
:101BA800AD002D08A2002B08AE002E08A3002908BE
:101BB800A5002808A4008C31AE248D3120003503FF
:101BC800031908003030A0000030A1003530AD0006
:101BD8002D08A20001308E3185268D31023020007B
:101BE80035060319F22D35080319080003302F06AE
:101BF800031908000130AD002D08AF07E22D2200BF
:101C08008C018D018E01373021008C0040308D0011
:101C18002F308E003C3023008E008D018C01240073
:101C28008D0130308C008E0125008C018D018E01D4
:101C3800373026008C00F0308D00FF308E003F30AA
:101C480027008C00F0308D00FF308E000E303C00F5
:101C5800A4000430A00018303D00940014309F0008
:101C6800193095000230A6000330A70005303C006B
:101C7800A1000800210091128F302000A0000D3033
:101C8800A1008A3196228E31210011122B302000BA
:101C9800A0000C30A1008A319F228E310830230029
:101CA8009F0090309D0024309E0040309B00033000
:101CB8009C0002302000A0000030A1008A3184225C
:101CC8008E3152302000A0000A30A1008A318D22C6
:101CD8008E314C302000A0000A30A1008A317B22CE
:101CE8002100EF012000EF01EE014030A2002208A0
:101CF8002200ED002000ED01EC01EB01210091161E
:101D080008002000A4005618BC2E0230A3002208A8
:101D18008600870123088100540A86000130870065
:101D28002008C03F2108C13F2408A30054088600AA
:101D380001308700230881005408033E86000130E3
:101D480087002208C03F0030C13F0530A3002308A8
:101D5800D4075408613A031DB52E5C30A30023084C
:101D6800D400D61055085406031DC12E5614C12E92
:101D78002208860087018101810A220886008701DE
:101D880002300106031D08008A31562220009115F1
:101D980008002000B3010230B1003108B400483017
:101DA800A0000130A1002A08B1003108A2002B08C8
:101DB800B2003208A3002908A5002808A4008C3125
:101DC800AE248E3120002E08A1002D08A0002F0877
:101DD800B1003108A2002908A4002808A3004D304A
:101DE8008C31FA248E31200034030319080048305E
:101DF800A0000130A1003430B1003108A200023047
:101E08008E3185268E310230200034060319072FC3
:101E18003408031908000330330603190800013099
:101E2800B1003108B307F72E2000AC01A71F232FFC
:101E3800A609A709A60A0319A70AAC01AC0AA91F93
:101E48002E2FA809A909A80A0319A90A0130AA006E
:101E58002A08AC06AD01AE012608270403195D2F38
:101E6800AB01AB0AA71B422F0130A635A70D890B82
:101E7800392F0130AA002A08AB07362F0130AD35BB
:101E8800AE0D890B432F27082902031D4D2F260865
:101E98002802031C542F2608A8022708A93B2D1442
:101EA8000130A736A60C890B552F0130AB02031D54
:101EB800422F2C080319652FAD09AE09AD0A031985
:101EC800AE0A2E08A7002D08A60008002000A800CA
:101ED8002808A4002408A9002208230403190800DC
:101EE8002008A4002908860087012408810020080A
:101EF800A40022082907A5002508FF3E86008701BF
:101F08002408810000302302033003192202031C35
:101F180008002008A400290A8600870124088100F7
:101F28002008A4002908023E8600870124088100B1
:101F38002008A40022082907A5002508FE3E8600DF
:101F48008701240881002008A40022082907A50089
:101F58002508FD3E86008701240881000030230201
:101F6800073003192202031C08002008A4002908CE
:101F7800033E86008701240881002008A400220867
:101F88002907A5002508FC3E860087012408810052
:101F980000302302093003192202031C0800290912
:101FA800A4002A09A500A40A0319A50A03302405D8
:101FB800A60000302505A7002608A4002408A907C4
:101FC8002608A2022708A33BFC30A205FF30A30580
:101FD80022082304031908002008A4002908860001
:101FE8008701240881000130A2020030A33B0130A0
:081FF800A4002408A907EC2F46
:023FFE00553438
:020000040001F9
:08000E00ECFFF3FFFFFFFFFF11
:00000001FF
